:100000000C9446000C9465000C9465000C946500FB
:100010000C9465000C9465000C9465000C946500CC
:100020000C9465000C9465000C9465000C946500BC
:100030000C9465000C9465000C9465000C946500AC
:100040000C9465000C9465000C9465000C9465009C
:100050000C9465000C9465000C9465000C9465008C
:100060000C9465000C9465000C9465000C9465007C
:100070000C9465000C9465000C9465000C9465006C
:100080000C9465000C9465000C94650011241FBE4F
:10009000CFEFD0E1DEBFCDBF11E0A0E0B1E0EEEFE9
:1000A000F6E000E00BBF02C007900D92AC35B1073F
:1000B000D9F721E0ACE5B1E001C01D92AF36B2073F
:1000C000E1F70E94F2020C947D030C940000C79AA1
:1000D00080E48A95F1F7C79880E28A95F1F7089550
:1000E000892B29F4C69880E28A95F1F70895C69A7B
:1000F00080E28A95F1F70895C79A40E44A95F1F7AE
:10010000C79880E28A95F1F7EEE5F1E080E090E0B3
:1001100030E321E30AC02083C69A40E24A95F1F712
:10012000019631968031910559F0C69840E24A9582
:10013000F1F78C30910584F7009BEDCF3083ECCF45
:100140000895909398008093990088E180939A0095
:100150008CE080939D00089590919B0095FFFCCFCB
:1001600080939C000895E2E6F0E0808188608083BF
:100170008081877F80830895779BFECF1FB8779B10
:10018000FECF81E08FB9779BFECF809162008860BF
:100190008093620080916200877F809362008FEF7E
:1001A00098E10197F1F700C0000008951FB8779B10
:1001B000FECF80EC8FB9779BFECF80916200886084
:1001C0008093620080916200877F8093620085EC5B
:1001D0008A95F1F70000089591E09FB9779BFECFD3
:1001E0008FB9779BFECF8091620088608093620018
:1001F00080916200877F8093620085EC8A95F1F799
:1002000000000895CF93DF93FC01DC0140E050E053
:1002100061E0779BFECF6FB9779BFECF8D918FB951
:10022000779BFECF909162009860909362009091CE
:100230006200977F9093620085EC8A95F1F7000049
:100240004F5F5F4FEF0109900020E9F79E012E1BE1
:100250003F0B2250310924173507D8F6DF91CF9193
:10026000089580E091E00E9402011D9A1C982FEFF2
:1002700081EE94E0215080409040E1F700C0000002
:100280001C9A2FEF83ED90E3215080409040E1F7DE
:1002900000C00000089588E091E00E9402011C9ACD
:1002A0001D982FEF81EE94E0215080409040E1F7BF
:1002B00000C000001D9A2FEF83ED90E32150804095
:1002C0009040E1F700C00000089582E191E00E94B3
:1002D00002011D9A1C9880E28A95F1F708958AE13F
:1002E00091E00E9402011C9A83B1807283B980E27E
:1002F0008A95F1F7089584E291E00E940201C59A7F
:100300002FEF8BE49DE1215080409040E1F700C049
:100310000000C59808958BE291E00E940201189AAE
:1003200019981A9A1B9880E28A95F1F7089583E349
:1003300091E00E9402011898199A1A981B9A80E27B
:100340008A95F1F708958BE391E00E940201189AD3
:1003500019981A981B9A80E28A95F1F7089580E41B
:1003600091E00E9402011898199A1A9A1B9880E24B
:100370008A95F1F7089586E491E00E940201189AA7
:10038000199A1A9A1B9A1D9A1C9A80E28A95F1F77B
:1003900008950DC00E94BC000E94BB012FEF80E7B2
:1003A00092E0215080409040E1F700C00000809131
:1003B0009B0087FFEFCF80919C000895CF93DF9340
:1003C000CDB7DEB761970FB6F894DEBF0FBECDBFD5
:1003D000FE0131969E012F5E3F4F8DE28193E21721
:1003E000F307E1F780916601813309F45DC08091E4
:1003F0005E01813309F455C080916701813309F4AE
:100400004DC080915F01813309F445C08091610145
:100410008133F1F1809160018133B9F18091620102
:10042000813381F180916301813349F180916401CD
:10043000813311F1809165018133D9F08091680198
:100440008133A1F080916901813311F486E48C87B6
:10045000198ACE0101960E94020161960FB6F894A6
:10046000DEBF0FBECDBFDF91CF91089583E48B87B0
:10047000E9CF82E58887E2CF8CE48F83DBCF84E409
:100480008E83D4CF85E58D83CDCF8CE48B83C6CF8F
:1004900083E58C83BFCF89E58A83B8CF88E58A87D7
:1004A000B0CF82E48983A8CF81E48987A0CFE1E639
:1004B000F0E080818860808388B388BB87B38760E1
:1004C00087BB80E58DB981E08EB908958FE59AEEFE
:1004D0000197F1F700C0000023E030E090E31FB87F
:1004E000779BFECF9FB9779BFECF8091620088609B
:1004F0008093620080916200877F8093620085EC28
:100500008A95F1F700002150310949F71FB8779B10
:10051000FECF88E38FB9779BFECF80916200886021
:100520008093620080916200877F8093620095ECE7
:100530009A95F1F700001FB8779BFECF88E08FB93E
:10054000779BFECF809162008860809362008091EB
:100550006200877F8093620085EC8A95F1F7000046
:100560001FB8779BFECF81E08FB9779BFECF80913C
:10057000620088608093620080916200877F809330
:1005800062008FEF98E10197F1F700C000001FB8FB
:10059000779BFECF86E08FB9779BFECF809162007C
:1005A00088608093620080916200877F8093620000
:1005B00095EC9A95F1F700001FB8779BFECF8EE07F
:1005C0008FB9779BFECF8091620088608093620034
:1005D00080916200877F8093620085EC8A95F1F7B5
:1005E000000008958FEF87BB18BA11BA12BA82B90A
:1005F000809161008E7F80936100809161008860AE
:100600008093610088B388BB87B3876087BB80E530
:100610008DB981E08EB90E94660283E080939800D4
:1006200080E48093990088E180939A008CE0809325
:100630009D00EEE5F1E08DE2819321E0EE36F207D8
:10064000D9F710926E010E94BC008BE491E00E94E9
:1006500002018FEF99E628E1815090402040E1F7B8
:1006600000C00000CBE0D0E00BC00E94BB018FEFC8
:100670009DEE22E0815090402040E1F700C0000054
:100680000E94BC000E94C90190E0C817D90768F316
:10069000FC01E35BFC4F0C94740371036E033503A0
:1006A00035036B036803650362035F035C03350373
:1006B00059030E947B01DBCF0E946501D8CF0E94C5
:1006C0003101D5CF0E94AF01D2CF0E94A301CFCF7D
:1006D0000E949701CCCF0E948B01C9CF0E944B0191
:1006E000C6CF0E946F01C3CFEE0FFF1F0024001C76
:0E06F0000BBE0790F691E02D0994F894FFCF11
:1006FE0053746570205570005374657020446F7785
:10070E006E004C6F6F6B205570004C6F6F6B2044FA
:10071E006F776E00466972696E6700466F72776119
:10072E0072640052657665727365004C656674007E
:10073E0072696768740053746F70005374617274D9
:0C074E00696E672050726F6772616D0069
:00000001FF
