:100000000C94C3000C94E2000C94E2000C94E20007
:100010000C94E2000C94E2000C94E2000C94E200D8
:100020000C94E2000C94E2000C94E2000C94E200C8
:100030000C94E2000C94E2000C94E2000C94E200B8
:100040000C94E2000C94E2000C94E2000C94E200A8
:100050000C94E2000C94E2000C94E2000C94E20098
:100060000C94E2000C94E2000C94E2000C94E20088
:100070000C94E2000C94E2000C94E2000C94E20078
:100080000C94E2000C94E2000C94E20000407A1020
:10009000F35A00A0724E18090010A5D4E80000E839
:1000A0007648170000E40B54020000CA9A3B000097
:1000B00000E1F505000080969800000040420F0026
:1000C0000000A08601000000102700000000E803E7
:1000D000000000006400000000000A0000000000B2
:1000E0000100000000002C76D888DC674F0823DF71
:1000F000C1DFAE59E1B1B796E5E3E453C63AE65144
:10010000997696E8E6C28426EB898C9B62ED407C6A
:100110006FFCEFBC9C9F40F2BAA56FA5F490055A06
:100120002AF75C936B6CF9676DC11BFCE0E40D472B
:10013000FEF520E6B500D0ED902E0300943577054E
:100140000080841E080000204E0A000000C80C3306
:100150003333330F986E12831141EF8D2114893B95
:10016000E65516CFFEE6DB18D1844B381BF77C1D15
:10017000901DA4BBE424203284725E228100C9F168
:1001800024ECA1E53D2711241FBECFEFD0E1DEBF57
:10019000CDBF11E0A0E0B1E0E0E2F1E100E00BBF93
:1001A00002C007900D92AC35B107D9F721E0ACE55C
:1001B000B1E001C01D92AF36B207E1F70E941C0406
:1001C0000C948E080C940000C79A80E48A95F1F78D
:1001D000C79880E28A95F1F70895892B29F4C6988B
:1001E00080E28A95F1F70895C69A80E28A95F1F740
:1001F0000895C79A40E44A95F1F7C79880E28A9536
:10020000F1F7EEE5F1E080E090E030E321E30AC0B1
:100210002083C69A40E24A95F1F7019631968031E3
:10022000910559F0C69840E24A95F1F78C30910556
:1002300084F7009BEDCF3083ECCF089565367105D0
:1002400014F064E670E098B341E050E001C0440F60
:100250008A95EAF7892F842B88BB77FD15C029E79B
:1002600030E0261B370B80E090E0EFE9FFE03197AC
:10027000F1F700C00000019682179307B1F788B329
:100280004095482348BB089560E070E0E8CF93B103
:10029000982B93B990E59A95F1F793B180958923BE
:1002A00083B9089523B1282B23B920E52A95F1F7C6
:1002B00033B1282F2095232323B9880F991F21B10B
:1002C00030E028233923232BD1F321B130E0282338
:1002D00039238217930769F560E070E003C06F3F30
:1002E000710511F1E7ECF0E03197F1F700C0000083
:1002F0006F5F7F4F21B130E02823392382179307A6
:1003000071F3072E000C880B990B0E94130520E057
:1003100030E040E252E40E949F0520E030E048E6F1
:1003200052E40E949F04089561EB7CED8FE293E418
:10033000089560E070E0CB01089590939800809359
:10034000990088E180939A008CE080939D00089545
:1003500090919B0095FFFCCF80939C000895809125
:100360009C000895E2E6F0E08081886080838081CF
:10037000877F80830895779BFECF1FB8779BFECF42
:1003800081E08FB9779BFECF809162008860809377
:10039000620080916200877F809362008FEF98E116
:1003A0000197F1F700C0000008951FB8779BFECFBA
:1003B00080EC8FB9779BFECF80916200886080933C
:1003C000620080916200877F8093620085EC8A954D
:1003D000F1F70000089591E09FB9779BFECF8FB9A8
:1003E000779BFECF8091620088608093620080914D
:1003F0006200877F8093620085EC8A95F1F70000A8
:100400000895CF93DF93FC01DC0140E050E061E010
:10041000779BFECF6FB9779BFECF8D918FB9779B7E
:10042000FECF90916200986090936200909162007C
:10043000977F9093620085EC8A95F1F700004F5FFB
:100440005F4FEF0109900020E9F79E012E1B3F0B43
:100450002250310924173507D8F6DF91CF9108953E
:1004600080E091E00E9401021D9A1C982FEF81EE1E
:1004700094E0215080409040E1F700C000001C9AB9
:100480002FEF83ED90E3215080409040E1F700C0D2
:100490000000089588E091E00E9401021C9A1D98D6
:1004A0002FEF81EE94E0215080409040E1F700C0B2
:1004B00000001D9A2FEF83ED90E321508040904083
:1004C000E1F700C00000089582E191E00E9401027E
:1004D0001D9A1C9880E28A95F1F708958AE191E0CF
:1004E0000E9401021C9A83B1807283B980E28A95CE
:1004F000F1F7089584E291E00E940102C59A2FEF7E
:100500008BE49DE1215080409040E1F700C0000065
:10051000C59808958BE291E00E940102189A1998FB
:100520001A9A1B9880E28A95F1F7089583E391E087
:100530000E9401021898199A1A981B9A80E28A95CB
:10054000F1F708958BE391E00E940102189A19983F
:100550001A981B9A80E28A95F1F7089580E491E059
:100560000E9401021898199A1A9A1B9880E28A959B
:10057000F1F7089586E491E00E940102189A199A11
:100580001A9A1B9A1D9A1C9A80E28A95F1F708958F
:10059000CF93DF93CDB7DEB761970FB6F894DEBF88
:1005A0000FBECDBFFE0131969E012F5E3F4F8DE203
:1005B0008193E217F307E1F780916601813309F433
:1005C0005DC080915E01813309F455C0809167015F
:1005D000813309F44DC080915F01813309F445C036
:1005E000809161018133F1F1809160018133B9F132
:1005F00080916201813381F180916301813349F1FE
:1006000080916401813311F1809165018133D9F0CA
:10061000809168018133A1F080916901813311F4E7
:1006200086E48C87198ACE0101960E9401026196A8
:100630000FB6F894DEBF0FBECDBFDF91CF91089506
:1006400083E48B87E9CF82E58887E2CF8CE48F83D0
:10065000DBCF84E48E83D4CF85E58D83CDCF8CE44E
:100660008B83C6CF83E58C83BFCF89E58A83B8CFE0
:1006700088E58A87B0CF82E48983A8CF81E489871F
:10068000A0CFCF92DF92EF92FF920F931F93CF9361
:10069000DF93CDB7DEB760970FB6F894DEBF0FBE1D
:1006A000CDBF0E9452016B017C018E010F5F1F4F75
:1006B00026E041E00E941506C8010E940102C70120
:1006C000B60160960FB6F894DEBF0FBECDBFDF91C6
:1006D000CF911F910F91FF90EF90DF90CF900895F1
:1006E000E1E6F0E080818860808388B388BB87B3CF
:1006F000876087BB80E58DB981E08EB908958FE56D
:100700009AEE0197F1F700C0000023E030E090E39B
:100710001FB8779BFECF9FB9779BFECF8091620079
:1007200088608093620080916200877F809362007E
:1007300085EC8A95F1F700002150310949F71FB87F
:10074000779BFECF88E38FB9779BFECF80916200C5
:1007500088608093620080916200877F809362004E
:1007600095EC9A95F1F700001FB8779BFECF88E0D3
:100770008FB9779BFECF8091620088608093620082
:1007800080916200877F8093620085EC8A95F1F703
:1007900000001FB8779BFECF81E08FB9779BFECF1B
:1007A0008091620088608093620080916200877F00
:1007B000809362008FEF98E10197F1F700C000008D
:1007C0001FB8779BFECF86E08FB9779BFECF8091D5
:1007D000620088608093620080916200877F8093CE
:1007E000620095EC9A95F1F700001FB8779BFECF59
:1007F0008EE08FB9779BFECF8091620088608093F6
:10080000620080916200877F8093620085EC8A9508
:10081000F1F7000008959093900089B988E18AB9B2
:100820008CE08093950008955D9BFECF8CB9089570
:100830005F9BFECF8CB108958FEF87BB18BA11BABA
:1008400012BA82B9809161008E7F8093610080919D
:10085000610088608093610088B388BB87B387603C
:1008600087BB80E58DB981E08EB90E947F0383E06C
:100870008093980080E48093990088E180939A00A7
:100880008CE080939D00EEE5F1E08DE2819321E024
:10089000EE36F207D9F710926E010E94BB018BE48D
:1008A00091E00E9401028FEF99E628E1815090408B
:1008B0002040E1F700C00000CBE0D0E00BC00E9478
:1008C000BA028FEF9DEE22E0815090402040E1F788
:1008D00000C000000E94BB01E0919C008E2F90E0C0
:1008E000C817D90760F3FC01E858FB4F0C940C06BD
:1008F0009C0499045F045F049604930490048D049F
:100900008A0487045F0484040E947A02DACF0E947A
:100910006402D7CF0E943002D4CF0E94AE02D1CF62
:100920000E94A202CECF0E949602CBCF0E948A02E2
:10093000C8CF0E944A02C5CF0E946E02C2CF0E9459
:10094000B3040C9465050E945E0558F00E9457059B
:1009500040F029F45F3F29F00C944E0551110C949E
:1009600099050C9454050E94760568F39923B1F318
:10097000552391F3951B550BBB27AA2762177307C5
:10098000840738F09F5F5F4F220F331F441FAA1F59
:10099000A9F335D00E2E3AF0E0E832D09150504015
:1009A000E695001CCAF72BD0FE2F29D0660F771FC3
:1009B000881FBB1F261737074807AB07B0E809F0A9
:1009C000BB0B802DBF01FF2793585F4F3AF09E3F2E
:1009D000510578F00C944E050C9499055F3FE4F3B3
:1009E000983ED4F3869577956795B795F7959F5F71
:1009F000C9F7880F911D9695879597F90895E1E0BD
:100A0000660F771F881FBB1F621773078407BA071B
:100A100020F0621B730B840BBA0BEE1F88F7E09576
:100A20000895E89409C097FB3EF4909580957095E1
:100A300061957F4F8F4F9F4F9923A9F0F92F96E92A
:100A4000BB279395F695879577956795B795F1119F
:100A5000F8CFFAF4BB0F11F460FF1BC06F5F7F4F3C
:100A60008F4F9F4F16C0882311F096E911C077234E
:100A700021F09EE8872F762F05C0662371F096E857
:100A8000862F70E060E02AF09A95660F771F881F26
:100A9000DAF7880F9695879597F9089597F99F67E4
:100AA00080E870E060E008959FEF80EC08950024F6
:100AB0000A941616170618060906089500240A94C3
:100AC00012161306140605060895092E0394000C49
:100AD00011F4882352F0BB0F40F4BF2B11F460FFD8
:100AE00004C06F5F7F4F8F4F9F4F089557FD905801
:100AF000440F551F59F05F3F71F04795880F97FBE2
:100B0000991F61F09F3F79F087950895121613069B
:100B10001406551FF2CF4695F1DF08C016161706CA
:100B20001806991FF1CF86957105610508940895FF
:100B3000E894BB2766277727CB0197F908950E9491
:100B4000B2050C9465050E94570538F00E945E05B9
:100B500020F0952311F00C944E050C9454051124AB
:100B60000C9499050E94760570F3959FC1F3950F3B
:100B700050E0551F629FF001729FBB27F00DB11D21
:100B8000639FAA27F00DB11DAA1F649F6627B00DB1
:100B9000A11D661F829F2227B00DA11D621F739F9A
:100BA000B00DA11D621F839FA00D611D221F749FA8
:100BB0003327A00D611D231F849F600D211D822FEF
:100BC000762F6A2F11249F5750409AF0F1F0882316
:100BD0004AF0EE0FFF1FBB1F661F771F881F915043
:100BE0005040A9F79E3F510580F00C944E050C949F
:100BF00099055F3FE4F3983ED4F386957795679522
:100C0000B795F795E7959F5FC1F7FE2B880F911D6C
:100C10009695879597F90895EE0FFF1F0024001C05
:100C20000BBE0790F691E02D0994EF920F931F935E
:100C3000CF93DF93E80147FD16C034E0042E000C8B
:100C4000550B57FF03C0519541955109E32E022FD3
:100C5000242FAE010E943506CE01DF91CF911F9166
:100C60000F91EF90089534E1E9CF8F929F92AF9268
:100C7000BF92CF92DF92EF92FF920F931F93CF9389
:100C8000DF93CDB7DEB729970FB6F894DEBF0FBE5E
:100C9000CDBF6A01F22EB02E2BE3201708F45FC0FF
:100CA00011E0100F012F27E0AE014F5F5F4F0E9450
:100CB000B607BC013981832F8970813009F451C096
:100CC000E1FC51C09E2D9170E0FC90E2AE2DA07130
:100CD000832F887033FF5AC0911147C083E08F156E
:100CE00008F045C0F81AA11108C0F6018F2D20E2C6
:100CF00081113FC0CF0CD11CF12C992329F0D601D2
:100D00009C93F60131966F01C6010396E2FE34C052
:100D10002EE4D6012C9331E411963C931197129650
:100D20002C93FC012F2D30E221112DC08F0D911D30
:100D3000DC011C928EEF9FEF29960FB6F894DEBF70
:100D40000FBECDBFDF91CF911F910F91FF90EF901C
:100D5000DF90CF90BF90AF909F908F9008951CE34D
:100D6000A1CF9DE2B3CF9BE2B1CF84E0B8CFF12C0D
:100D7000BACF21938150BCCF2EE6F601208331E615
:100D800031832283CECF31932150CECF232F2470B5
:100D900032FF41C091112FC023E02F1510F48F2D89
:100DA000821BA11108C0F601282F30E2211125C0B5
:100DB000C80ED11C80E0992331F0F6019083960192
:100DC0002F5F3F4F690196012D5F3F4FE2FE18C034
:100DD00099E4D6019C939EE411969C93119796E416
:100DE00012969C93F901982F40E2911111C0280F9F
:100DF000311DD9019ECF24E0D0CF31932150D6CFE1
:100E000099E6F60190839EE6918396E69283EACF77
:100E100041939150EACF41E050E0911102C040E08F
:100E200050E0161617060CF075C0FB013196E40F62
:100E3000F51FBB2009F471C04B2D50E04F5F5F4F91
:100E40004E0F5F1FEF2DF0E04E175F0714F42F2DAC
:100E5000241B8E2D887141F4F601822F40E281110E
:100E60005FC0C20ED11C20E0992329F0F6019083C7
:100E7000C60101966C01A11108C0F601822F90E312
:100E8000811151C0C20ED11C20E0012F060F9A81A2
:100E9000A32FA071AA2E34FF03C0913309F401508F
:100EA00010160CF043C0093008F008E0AB0177FFE2
:100EB00002C040E050E0FB013196E41BF50BA1E0DD
:100EC000B0E0AC0FBD1FEA0FFB1F3EE24B01801AE2
:100ED00091080B2D10E01195019511094F3FBFEFBF
:100EE0005B0721F4D6013C9311966D0164177507D9
:100EF000FCF084169506E4F4808141505109319646
:100F0000D60111967D0140175107A4F0D6018C93AC
:100F10006701E4CFE1E0F0E08ACF40E050E090CF1D
:100F2000419381509CCF91938150AACF01E0BECFD5
:100F300080E3E3CF6417750731F4963390F495336B
:100F400011F4AA2071F0F6018083F701822F90E25C
:100F5000811109C0F701E20FF11D108280E090E0DD
:100F6000EBCE81E3F0CF91938150F2CF283008F09F
:100F700027E03327DA01990F311D87FD9160009634
:100F80006105710539F432602E5F3D9330E32A9597
:100F9000E1F708959F3F30F080387105610509F051
:100FA0003C5F3C5F3D93913008F08068911DDF937A
:100FB000CF931F930F93FF92EF92192F987F9695DF
:100FC000E92F96959695E90FFF27EA51FF4F99274C
:100FD0003327EE24FF24A701E70105900894079426
:100FE00028F4360FE71EF81E491F511D660F771FA4
:100FF000881F991F0694A1F70590079428F4E70E1F
:10100000F81E491F561FC11D770F881F991F661FA5
:101010000694A1F70590079428F4F80E491F561F6F
:10102000C71FD11D880F991F661F771F0694A1F750
:101030000590079420F4490F561FC71FD81F990F1A
:10104000661F771F881F0694A9F784911095177063
:1010500041F0D695C79557954795F794E7941A951B
:10106000C1F7ECE8F0E06894159015913591659121
:10107000959105907FE27395E118F10A430B560BA9
:10108000C90BD009C0F7E10CF11E431F561FC91F41
:10109000D01D7EF4703311F48A95E6CFE8940150A8
:1010A00030F0080F0AF40027021708F4202F2395C8
:1010B000022F7A3328F079E37D932A95E9F710C05F
:1010C0007D932A9589F60694979567953795179598
:1010D0001794E118F10A430B560BC90BD00998F08D
:1010E00023957E9173957A3308F070E37C932013F7
:1010F000B8F77E9170617D9330F0839571E37D93B5
:1011000070E32A95E1F71124EF90FF900F911F9162
:10111000CF91DF91992787FD90950895F894FFCF9F
:1011200053746570205570005374657020446F7758
:101130006E004C6F6F6B205570004C6F6F6B2044CE
:101140006F776E00466972696E6700466F727761ED
:1011500072640052657665727365004C6566740052
:1011600072696768740053746F70005374617274AD
:0C117000696E672050726F6772616D003D
:00000001FF
